:020000040800F2
:10000000000005208D340008751D0008771D0008CC
:10001000791D00087B1D00087D1D00080000000000
:100020000000000000000000000000007F1D00082C
:10003000811D000800000000831D0008851D0008C8
:10004000DD340008DD340008DD340008DD3400084C
:10005000DD340008DD340008DD340008DD3400083C
:10006000DD340008DD340008DD340008DD3400082C
:10007000DD340008DD340008DD340008DD3400081C
:10008000DD340008DD340008DD340008DD3400080C
:10009000DD340008DD340008DD340008DD340008FC
:1000A000DD340008DD340008DD340008DD340008EC
:1000B000DD340008DD340008DD340008DD340008DC
:1000C000DD340008DD340008DD340008DD340008CC
:1000D000DD340008DD340008DD340008DD340008BC
:1000E000DD340008DD340008DD340008DD340008AC
:1000F000DD340008DD340008DD340008DD3400089C
:10010000DD340008DD340008DD340008DD3400088B
:10011000DD340008DD340008DD340008DD3400087B
:10012000DD340008DD340008DD340008DD3400086B
:10013000DD340008DD340008DD340008DD3400085B
:10014000DD340008DD340008DD340008DD3400084B
:10015000DD340008DD340008DD340008DD3400083B
:10016000DD340008DD340008DD340008DD3400082B
:10017000DD340008DD340008DD3400080000000034
:10018000DD340008DD340008DD340008DD3400080B
:10019000DD340008DD340008DD340008DD340008FB
:1001A000DD340008DD340008DD340008DD340008EB
:1001B000DD340008DD340008DD340008DD340008DB
:0801C000DD340008DD34000805
:1001D00010B5054C237833B9044B13B10448AFF381
:1001E00000800123237010BD780000200000000073
:1001F000F443000808B5034B1BB103490348AFF3B0
:10020000008008BD000000007C000020F4430008CE
:1002100053B94AB9002908BF00281CBF4FF0FF316D
:100220004FF0FF3000F072B9ADF1080C6DE904CE6B
:1002300000F006F8DDF804E0DDE9022304B07047C1
:100240002DE9F047089E04468846002B4BD18A4290
:10025000154667D9B2FA82F24AB1C2F1200701FA13
:1002600002F320FA07F7954047EA030894404FEA63
:10027000154E230CB8FBFEF71FFA85FC0EFB178802
:1002800043EA084307FB0CF1994209D9EB1807F13F
:10029000FF3080F01B81994240F21881023F2B44CD
:1002A0005B1AA4B2B3FBFEF00EFB103344EA034426
:1002B00000FB0CFCA44509D92C1900F1FF3380F098
:1002C0000781A44540F2048102382C4440EA0740EB
:1002D000A4EB0C0400271EB1D4400023C6E9004360
:1002E0003946BDE8F0878B4209D9002E00F0EB803B
:1002F0000027C6E9000138463946BDE8F087B3FA61
:1003000083F7002F47D18B4202D3824200F2FA805A
:10031000841A61EB030301209846002EE0D0C6E961
:100320000048DDE702B9FFDEB2FA82F2002A40F0AF
:100330008F80491B4FEA154E1FFA85F80127B1FB44
:10034000FEFC230C0EFB1C1143EA014308FB0CF1DD
:10035000994207D9EB180CF1FF3002D2994200F212
:10036000CD808446591AA3B2B1FBFEF00EFB1014E7
:1003700043EA044408FB00F8A04507D92C1900F112
:10038000FF3302D2A04500F2B6801846A4EB080461
:1003900040EA0C409FE7C7F1200CBB4022FA0CFE5C
:1003A0004EEA030E01FA07F420FA0CF521FA0CF3D9
:1003B0004FEA1E482543B3FBF8F92C0C08FB193310
:1003C0001FFA8EFA44EA034309FB0AF49C4202FA3C
:1003D00007F200FA07F10BD91EEB030309F1FF3016
:1003E00080F087809C4240F28480A9F10209734426
:1003F0001B1BADB2B3FBF8F008FB103345EA034416
:1004000000FB0AFAA24508D91EEB040400F1FF33F1
:100410006BD2A24569D90238744440EA0940A0FB76
:100420000289A4EB0A044C45C2464B4654D351D032
:10043000002E69D0B1EB0A0564EB030404FA0CFC4E
:10044000FD40FC404CEA0505C6E90054002747E79B
:10045000C2F1200320FA03F7954001FA02F021FAD5
:1004600003F34FEA154E3843010CB3FBFEF71FFAB6
:1004700085F80EFB173341EA034107FB08F38B4273
:1004800004FA02F407D9691807F1FF3C2FD28B4216
:100490002DD9023F2944CB1A81B2B3FBFEF00EFBEB
:1004A000103341EA034100FB08F38B4207D9691876
:1004B00000F1FF3C17D28B4215D902382944C91AE2
:1004C00040EA07473BE73746304609E70746E7E695
:1004D0001846FBE64145ABD2B8EB020A69EB0E02C7
:1004E00001381346A4E76046E9E7184695E76746F2
:1004F000D1E781467CE702382C4447E7ACF1020C97
:100500002B442FE7384608E73746E9E6704700BF37
:10051000034613F8012B002AFBD1181A0138704743
:1005200001F0FF01102A2BDB10F0070F08D010F8A4
:10053000013B013A8B422DD010F0070F42B3F6D1A8
:10054000F0B441EA012141EA014122F007047FF0C1
:1005500000070023F0E80256083C85EA010586EA18
:10056000010685FA47F5A3FA87F586FA47F6A5FA54
:1005700087F68EB9EED1F0BC01F0FF0102F0070260
:1005800032B110F8013B013A83EA010313B1F8D10B
:100590000020704701387047002D06BF35460338EC
:1005A000073815F0010F07D1013015F4807F02BF25
:1005B000013015F4C03F0130F0BC0138704700BF76
:1005C00010B504460E4B18784FF47A73B3FBF0F372
:1005D0000C4A1068B0FBF3F000F08CF868B90F2CEF
:1005E00001D901200AE0002221464FF0FF3000F03F
:1005F0004FF8034B5C60002000E0012010BD00BFFD
:10060000000000200800002008B5032000F02EF8AC
:100610000020FFF7D5FF01F041FB002008BD0000DE
:10062000034A1168034B1B780B441360704700BFEB
:10063000CC00002000000020014B1868704700BF6C
:10064000CC00002038B50446FFF7F6FF0546B4F1AC
:10065000FF3F02D0044B1B781C44FFF7EDFF401B0B
:10066000A042FAD338BD00BF000000200649CB6885
:1006700023F4E0631B041B0C000200F4E06003435E
:10068000024A1A43CA60704700ED00E00000FA0514
:1006900030B4154BDB68C3F30223C3F10704042C09
:1006A00028BF04241D1D062D14D9033B4FF0FF3530
:1006B00005FA04F421EA0401994005FA03F322EA59
:1006C00003031943002807DB0901C9B2074B19547A
:1006D00030BC70470023E9E700F00F000901C9B200
:1006E000034B1954F4E700BF00ED00E000E400E024
:1006F00014ED00E00138B0F1807F0AD2064B58605B
:10070000064AF02182F823100020986007221A6020
:1007100070470120704700BF10E000E000ED00E0EE
:1007200000230F2B00F2E280F0B482B039E00922FE
:1007300000E00022B2403A4302346D4E46F82420D5
:100740006C4A1468EA4302EA04064F6817F4803FD3
:1007500001D045EA0406674C2660646802EA040694
:100760004F6817F4003F01D045EA0406614C66600B
:10077000A46802EA04064F6817F4801F01D045EA16
:1007800004065C4CA660E46822404E6816F4001F24
:1007900001D045EA0402574CE26001330F2B00F20E
:1007A000A28001229A400C6804EA0205AA42F4D110
:1007B0004C68122C18BF022C10D1DE08083650F8F5
:1007C00026C003F00704A7000F24BC402CEA040C49
:1007D0000C69BC4044EA0C0440F8264004685F0001
:1007E0000326BE40F64306EA040C4C6804F00304FA
:1007F000BC4044EA0C0404604C6804F1FF3C112C3A
:1008000018BFBCF1010F01D9122C11D1846806EA7E
:10081000040CCC68BC4044EA0C048460446824EABC
:10082000020C4C68C4F300129A4042EA0C02426087
:10083000C26816408A68BA403243C2604A6812F001
:10084000805FAAD02C4A546C44F480445464526CA7
:1008500002F480420192019A9C08A61C244A52F894
:10086000267003F0030296000F22B24027EA020727
:10087000224A90423FF45DAF02F58062904222D05E
:1008800002F58062904220D002F5806290421ED034
:1008900002F5806290421CD002F5806290421AD02C
:1008A00002F58062904218D002F58062904216D024
:1008B00002F58062904214D002F5806290423FF4CB
:1008C00036AF0A2236E7012234E7022232E703225A
:1008D00030E704222EE705222CE706222AE707222A
:1008E00028E7082226E702B0F0BC7047704700BF37
:1008F00000380140003C0140003802400000024046
:1009000012B909048161704781617047002800F0C5
:10091000DB8170B582B00446036813F0010F29D063
:10092000A24B9B6803F00C03042B1AD09F4B9B68CF
:1009300003F00C03082B0FD06368B3F5803F40D061
:10094000002B54D1994B1A6822F480321A601A682D
:1009500022F480221A6039E0944B5B6813F4800F14
:10096000EAD0924B1B6813F4003F03D06368002B5E
:1009700000F0AC81236813F0020F75D08B4B9B689D
:1009800013F00C0F5ED0894B9B6803F00C03082B0F
:1009900053D0E368002B00F08A80844A136843F048
:1009A00001031360FFF748FE0546804B1B6813F0F8
:1009B000020F73D1FFF740FE401B0228F5D9032038
:1009C00087E17A4A136843F48033136063682BB37A
:1009D000FFF732FE0546754B1B6813F4003FC9D183
:1009E000FFF72AFE401B6428F5D9032071E1B3F517
:1009F000A02F09D06D4B1A6822F480321A601A6851
:100A000022F480221A60E1E7684B1A6842F48022DF
:100A10001A601A6842F480321A60D7E7FFF70CFEBA
:100A20000546624B1B6813F4003FA3D0FFF704FE9A
:100A3000401B6428F5D903204BE15C4B5B6813F441
:100A4000800FA6D1594B1B6813F0020F04D0E36846
:100A5000012B01D001203CE1544A136823F0F80334
:100A6000216943EAC1031360236813F0080F46D0DD
:100A7000636983B34D4A536F43F001035367FFF734
:100A8000DBFD0546494B5B6F13F0020F37D1FFF7D3
:100A9000D3FD401B0228F5D903201AE1434A13680D
:100AA00023F0F803216943EAC1031360DCE73F4AFE
:100AB000136823F001031360FFF7BEFD05463B4BAF
:100AC0001B6813F0020FCFD0FFF7B6FD401B0228C2
:100AD000F5D90320FDE0354A536F23F00103536736
:100AE000FFF7AAFD0546314B5B6F13F0020F06D0EE
:100AF000FFF7A2FD401B0228F5D90320E9E0236897
:100B000013F0040F7ED0294B1B6C13F0805F1ED1B5
:100B1000264B1A6C42F080521A641B6C03F080530F
:100B20000193019B0125224B1B6813F4807F10D099
:100B3000A368012B21D0002B3CD11C4B1A6F22F053
:100B400001021A671A6F22F004021A671AE00025E0
:100B5000E9E7174A136843F480731360FFF76CFDED
:100B60000646134B1B6813F4807FE1D1FFF764FD49
:100B7000801B6428F5D90320ABE00C4A136F43F0C7
:100B800001031367A3685BB3FFF756FD0646074BE7
:100B90001B6F13F0020F34D1FFF74EFD801B41F2A3
:100BA00088339842F3D9032093E000BF0038024015
:100BB00000700040052B09D0484B1A6F22F001024B
:100BC0001A671A6F22F004021A67DBE7434B1A6FA9
:100BD00042F004021A671A6F42F001021A67D1E765
:100BE000FFF72AFD06463D4B1B6F13F0020F08D09E
:100BF000FFF722FD801B41F288339842F3D903208E
:100C000067E0F5B9A369002B62D0344A926802F01C
:100C10000C02082A5FD0022B19D0304A136823F047
:100C200080731360FFF708FD04462C4B1B6813F01C
:100C3000007F47D0FFF700FD001B0228F5D90320F5
:100C400047E0264A136C23F080531364DAE7234A03
:100C5000136823F080731360FFF7EEFC05461F4B0B
:100C60001B6813F0007F06D0FFF7E6FC401B02284C
:100C7000F5D903202DE0E369226A1343626A43EA4F
:100C80008213A26A5208013A43EA0243E26A43EA43
:100C9000026343F00053114A5360136843F08073BA
:100CA0001360FFF7C9FC04460C4B1B6813F0007F70
:100CB00006D1FFF7C1FC001B0228F5D9032008E08C
:100CC000002006E0002004E001207047012000E041
:100CD000002002B070BD0120FBE700BF00380240D9
:100CE000264B9B6803F00C03042B44D0082B01D047
:100CF000234870472DE9F04B204B5A6802F03F0221
:100D00005B6813F4800F13D01C4B5968C1F3881132
:100D100000231C48A1FB0001FFF77AFA174B5B6820
:100D2000C3F3014301335B00B0FBF3F0BDE8F08B8C
:100D3000124B5B68C3F388131E4600275C01002535
:100D4000E41A65EB0705A90141EA9461A001001BC3
:100D500061EB0501CB0043EA5073C400A01943EBDB
:100D600007018B0243EA9053840220461946002370
:100D7000FFF74EFAD2E70348704700BF0038024041
:100D80000024F40040787D01002800F0A28070B5B6
:100D90000446524B1B6803F00F038B420CD24F4AA0
:100DA000136823F00F030B431360136803F00F0362
:100DB0008B4201D0012070BD236813F0020F17D0C1
:100DC00013F0040F04D0464A936843F4E053936051
:100DD000236813F0080F04D0414A936843F460433A
:100DE00093603F4A936823F0F003A0680343936045
:100DF0000D46236813F0010F31D06368012B20D01A
:100E0000022B25D0364A126812F0020F63D0344903
:100E10008A6822F0030213438B60FFF70DFC06463D
:100E20002F4B9B6803F00C036268B3EB820F16D064
:100E3000FFF702FC801B41F288339842F0D903206F
:100E4000B9E7274A126812F4003FE0D10120B2E767
:100E5000234A126812F0007FD9D10120ABE71F4B63
:100E60001B6803F00F03AB420CD91C4A136823F034
:100E70000F032B431360136803F00F03AB4201D041
:100E8000012098E7236813F0040F06D0144A9368F2
:100E900023F4E053E1680B439360236813F0080FD9
:100EA00007D00F4A936823F46043216943EAC103E2
:100EB0009360FFF715FF0A4B9B68C3F30313094ABE
:100EC000D35CD840084B18600020FFF779FB002066
:100ED00071E70120704701206DE700BF003C024030
:100EE000003802400C44000808000020F8B5054610
:100EF0000F4616461C462B689B6837EA03030CBF57
:100F000001230023B34237D0B4F1FF3FF3D0FFF702
:100F100093FB069BC01AA04201D2002CEBD12A6899
:100F2000536823F0E00353606B68B3F5827F0BD006
:100F3000AB6AB3F5005F14D0012385F85D30002360
:100F400085F85C30032018E0AB68B3F5806F18BFFC
:100F5000B3F5004FECD12A68136823F04003136007
:100F6000E6E72A68136823F4005313602A681368BD
:100F700043F400531360DFE70020F8BDF8B50746DF
:100F80000D4614461E4602E0B6F1FF3F0BD13A680B
:100F900093682B40A3423BD0B5F5C06F08BF002C2F
:100FA000F2D1137BF0E7FFF747FB069BC01AB04274
:100FB00001D2002EEBD13A68536823F0E00353606E
:100FC0007B68B3F5827F0BD0BB6AB3F5005F14D0AA
:100FD000012387F85D30002387F85C30032018E098
:100FE000BB68B3F5806F18BFB3F5004FECD13A681A
:100FF000136823F040031360E6E73A68136823F4AC
:10100000005313603A68136843F400531360DFE73A
:101010000020F8BD70B582B004460D461646009219
:101020000B4600224FF4C051FFF7A8FFB8B9009655
:101030002B46002280212046FFF758FFB8B90096C2
:101040002B4600224FF4C0612046FFF797FF03466E
:1010500050B1236E43F020032366032304E0236E84
:1010600043F0200323660323184602B070BD236EAD
:1010700043F0200323660323F6E7002858D010B579
:1010800004460023836290F85D30002B45D0022394
:1010900084F85D302268136823F040031360E3682E
:1010A000B3F5E06F3ED90022B3F5706F18BFB3F50A
:1010B000E06F01D00021A162216B21B9B3F5E06F8F
:1010C00033D9022323636368A1680B4321690B436F
:1010D00061690B43A16901F400710B43E1690B43A2
:1010E000216A0B43A06A216803430B60638B03F002
:1010F0000403616A0B43616B0B43E1680B43216896
:1011000013434B602268D36923F40063D36100204A
:101110002066012384F85D3010BD80F85C3000F05B
:10112000D5FDB4E74FF48052BEE701232363CAE73D
:10113000012070472DE9F843DDF8208090F85C40ED
:10114000012C00F05D811D4617460E460446012322
:1011500080F85C30FFF770FA814694F85D00C0B209
:101160006368012814D0B3F5827F09D002230122DD
:1011700084F85D20002284F85C201846BDE8F883DE
:10118000A368002B40F03081042801D00223EEE751
:10119000B7FA87F35B09002E08BF0123002B40F04C
:1011A0002581002D00F0248194F85D30DBB2042B02
:1011B00002D0052384F85D30002323662764A4F859
:1011C0004650A4F84450A663E587A587E3642365E9
:1011D000E368B3F5E06F01D8012D22D92268536886
:1011E00023F48053536023681A6812F0400F03D130
:1011F0001A6842F040021A60E368B3F5E06F56D90E
:1012000063680BB1012D0AD1A26B23681288DA60E2
:10121000A36B0233A363E38F013B9BB2E3870125FA
:1012200025E02268536843F480535360DBE723686A
:101230009A6812F0010F10D0B4F8462092B262B151
:10124000DA68236C1A80236C02332364B4F84630C6
:10125000013B9BB2A4F846300125FFF7EDF9A0EB66
:101260000900404503D3B8F1FF3F40F0C380E38F4E
:101270009BB22BB9B4F846309BB2002B00F0A7808C
:1012800023689A6812F0020FD1D0E28F92B2002A3E
:10129000CDD0002DCBD0A26B1288DA60A36B0233C5
:1012A000A363E38F013B9BB2E3870025BFE763683D
:1012B0000BB1012D0ED1E38F9BB2012B0CD9A26B88
:1012C00023681288DA60A36B0233A363E38F023BC7
:1012D0009BB2E387012547E0A26B236812781A735B
:1012E000A36B0133A363E38F013B9BB2E387F1E779
:1012F000E28F92B2012A0BD9A26B1288DA60A36B3B
:101300000233A363E38F023B9BB2E38700253CE0FB
:10131000A26B12781A73A36B0133A363E38F013BB3
:101320009BB2E387002530E02268536843F4805382
:10133000536001250CE0226C1B7B1370236C01337E
:101340002364B4F84630013B9BB2A4F84630012533
:10135000FFF772F9A0EB0900404502D3B8F1FF3F57
:101360004AD1B8F1000F49D0E38F9BB21BB9B4F852
:1013700046309BB25BB323689A6812F0020F04D028
:10138000E28F92B20AB1002DB2D123689A6812F0AE
:10139000010FDDD0B4F8462092B2002AD8D0B4F8BC
:1013A000462092B2012AC6D9DA68236C1A80236CCF
:1013B00002332364B4F84630023B9BB2A4F84630B3
:1013C000B4F846309BB2012BAED90125C0E74A469E
:1013D00041462046FFF71EFE034600283FF4C7AEF5
:1013E000202323660123C2E60223C0E60123BEE6D2
:1013F0000123BCE60323BAE60323B8E60323B6E6DB
:101400000223BAE670B582B00C46113821285CD8A8
:10141000DFE800F0115B1B5B5B5B5B5B5B5B5B5B5B
:101420005B5B5B5B5B5B5B5B5B5B5B5B5B5B5B4522
:101430005B5B5B5B5B500B781BB1002001F04AFAF1
:1014400043E0FF2001F01EFA3FE00A342046FFF798
:101450005FF885B201F050FA06460DB1072D0AD0AB
:101460001B4B1878864216D901F034FA184A1378C3
:101470000133137029E007221649204602F05AF87A
:101480000028EDD1FF230093134B022208211148BD
:1014900001F0EBF919E0FF2001F0F4F915E00B7809
:1014A000012B04D08BB9FF2001F0ECF90DE001F025
:1014B000E7F90AE0094802F0C9F821786278A378D0
:1014C000E0780090064802F04DF802B070BD00BF11
:1014D00094000020244500082C45000838450008E9
:1014E0004C4500082DE9F04F91B000240B940C946A
:1014F0000D940E940F94A94B1A6B42F010021A63CC
:101500001A6B02F010020092009A1A6B42F040022D
:101510001A631A6B02F040020192019A1A6B42F0B0
:1015200002021A631A6B02F002020292029A1A6B0A
:1015300042F008021A631A6B02F008020392039A3F
:101540001A6B42F004021A631A6B02F0040204924E
:10155000049A1A6B42F001021A631A6B02F001023C
:101560000592059A1A6B42F400721A631A6B02F420
:1015700000720692069A1A6B42F480721A631A6B12
:1015800002F480720792079A1A6B42F480621A631F
:101590001A6B02F480620892089A1A6B42F02002D9
:1015A0001A631A6B02F020020992099A1A6B42F030
:1015B00080021A631B6B03F080030A930A9B0122CB
:1015C00020217748FFF79CF9224641F20C0175482B
:1015D000FFF796F9224608217348FFF791F9224652
:1015E0004FF400517148FFF78BF901224FF48071DD
:1015F0006F48FFF785F92246C8216E48FFF780F94A
:1016000010230B9302250C950D940E940E230F932B
:101610000BA96948FFF784F808230B930C940D94E9
:101620000BA96548FFF77CF84FF0040BCDF82CB000
:101630000C950D9403260E9609230F930BA95E4873
:10164000FFF76EF84FF4D0430B930C950D940E9664
:101650000B230F930BA95748FFF762F84FF68373DC
:101660000B930C950D940E964FF00C09CDF83C9011
:101670000BA95148FFF754F84FF440730B93122312
:101680000C9301270D970E94CDF83CB00BA94B4855
:10169000FFF746F843F623430B930C950D940E96F3
:1016A0004FF00A08CDF83C800BA94448FFF738F802
:1016B00010230B930C950D940E940F950BA93F4896
:1016C000FFF72EF84FF0800ACDF82CA00C950D9462
:1016D0000E9408230F930BA93148FFF721F84FF41C
:1016E000F8530B930C950D940E96CDF83C900BA9E6
:1016F0003348FFF715F84FF400430B930C950D9406
:101700000E940F970BA92A48FFF70AF860230B9352
:101710000C950D940E940D230F930BA92648FEF7FC
:10172000FFFFCDF82CA00C950D940E9407230F937A
:101730000BA92248FEF7F4FF40230B930C950D9460
:101740000E96CDF83C800BA91C48FEF7E9FF48F245
:1017500033130B930C950D940E96CDF83C900BA97A
:101760001448FEF7DDFF4EF6FF730B930C950D94B6
:101770000E940E230F930BA91248FEF7D1FF4FF4DE
:10178000805ACDF82CA00C940D940BA90D48FEF7AF
:10179000C7FF40230B930C4B0C9317E0003802401B
:1017A000000C02400020024000280240001C0240C1
:1017B00000000240001802400010024000040240F5
:1017C0000008024000240240000012100D940BA9F2
:1017D000A348FEF7A5FF4CF203730B930C950D94F1
:1017E0000E96CDF83C900BA99D48FEF799FF4FF45B
:1017F000E0530B930C950D940E96CDF83C800BA9FD
:101800009848FEF78DFFF0230B930C950D940E94E2
:10181000CDF83C800BA99448FEF782FFF7230B9389
:101820000C950D940E940E220F920BA98F48FEF783
:1018300077FFCDF82CA00C950D940E9409220F92F1
:101840000BA98B48FEF76CFF4FF480630B930C954C
:101850000D940E94CDF83C800BA98548FEF760FFEF
:1018600020230B930C970D940E940BA97C48FEF744
:1018700057FF08220B920C950D940E940D220F9297
:101880000BA97748FEF74CFF41F20C030B930C9722
:101890000D940E940BA97448FEF742FF4FF4005AC2
:1018A000CDF82CA00C940D940BA97248FEF738FFCC
:1018B0004FF63F030B930C950D940E96CDF83C908C
:1018C0000BA96D48FEF72CFF4FF446430B930C9584
:1018D0000D940E940E220F920BA96348FEF720FF81
:1018E00008220B920C970D940E940BA95F48FEF7FB
:1018F00017FF4FF400720B920C950D940E940D226D
:101900000F920BA95A48FEF70BFF10220B920C9472
:101910000D940BA95248FEF703FFCDF82CB00C959F
:101920000D940E96CDF83C900BA94D48FEF7F8FEAD
:1019300048F204030B930C940D940BA94F48FEF747
:10194000EFFECDF82CA00C970D940E940BA94B48EC
:10195000FEF7E6FE4FF4BC430B930C950D940E94EA
:101960000D220F920BA94548FEF7DAFE4FF40072E4
:101970000B920C950D940E9407220F920BA93948E7
:10198000FEF7CEFE4FF480730B930C970D940E95DB
:101990000BA93448FEF7C4FECDF82CA0384B0C93AD
:1019A0000D940BA93048FEF7BBFEC0230B930C959A
:1019B0000D940E9608230F930BA92E48FEF7B0FE48
:1019C00010230B930C950D940E96CDF83C800BA92B
:1019D0002A48FEF7A5FE4FF0280ACDF82CA00C955A
:1019E0000D940E96CDF83C900BA92448FEF798FE76
:1019F000C8230B930C970D940E940BA91C48FEF76B
:101A00008FFE4FF4F8630B930C960D940BA91A48B4
:101A1000FEF786FE08230B930C950D940E96CDF8D9
:101A20003C900BA91348FEF77BFE05230B930C9506
:101A30000D940E96CDF83C800BA90E48FEF770FE73
:101A400032230B930C950D940E960B230F930BA939
:101A50000848FEF765FECDF82CB00C9512E000BFEB
:101A6000000C02400000024000200240002802401A
:101A7000001802400008024000140240001C02400E
:101A8000000012100D940E9609230F930BA92D48F8
:101A9000FEF746FE4FF460530B930C950D940E9693
:101AA00009230F930BA92848FEF73AFECDF82CB076
:101AB0000C940D940BA92548FEF732FE86230B9358
:101AC0000C950D940E960B230F930BA92048FEF74F
:101AD00027FE0B970C960D940BA91D48FEF720FED0
:101AE00050230B930C950D940E940D230F930BA97B
:101AF0001748FEF715FE4FF4C0730B9312230C9397
:101B00000D970E96CDF83CB00BA91248FEF708FED3
:101B1000CDF82CA00C950D940E96CDF83C800BA919
:101B20000B48FEF7FDFD40230B930C950D940E948E
:101B300009230F930BA90748FEF7F2FD11B0BDE88A
:101B4000F08F00BF00040240000C02400018024069
:101B500000000240001C024008B50E480E4B036016
:101B60004FF482734360002383604FF4E062C260ED
:101B7000036143614FF4007282610822C261036213
:101B8000436283620A21C16203634263FFF775FA0D
:101B900008BD00BFD00000200038004030B595B02F
:101BA0003022002108A801F0D4FC002403940494FE
:101BB0000594069407941B4B1A6C42F080521A64E9
:101BC0001B6C03F080530193019B174A136823F4A5
:101BD000404343F400431360136803F4404302930B
:101BE000029B0225089501230B9310230C930E955D
:101BF0000F940A231093D22311931295139508A8DA
:101C0000FEF784FE0F230393049505944FF4A0532D
:101C100006934FF480530793052103A8FFF7B4F808
:101C200015B030BD003802400070004000B587B0EC
:101C3000FEF7EAFCFFF7B2FFFFF7B0FFFFF752FC39
:101C4000012208211148FEF75BFE012210211048F5
:101C5000FEF756FEFFF780FF00F02CF900230193FA
:101C600002930393049305930A4B0093684600F094
:101C700051FD20B10146084801F074FCFEE7FF2049
:101C800000F000FE002000F067FDFBE700100240BE
:101C900000000240051400086845000882B00A4BA5
:101CA0001A6C42F080521A641A6C02F08052009250
:101CB000009A5A6C42F480425A645B6C03F480438D
:101CC0000193019B02B0704700380240F0B589B023
:101CD0000023039304930593069307930268224B12
:101CE0009A4201D009B0F0BD03F500331A6C42F4FA
:101CF00080421A641A6C02F480420092009A1A6BB5
:101D000042F480721A631A6B02F480720192019A93
:101D10001A6B42F002021A631B6B03F00203029378
:101D2000029B0224039404940694052507950F4F03
:101D300003A93846FEF7F4FC01230393049400261C
:101D4000059603230693079503A93846FEF7E8FC9A
:101D50004FF440430393049405960694079503A912
:101D60000348FEF7DDFCBDE70038004000200240DC
:101D7000000402407047FEE7FEE7FEE7FEE770471B
:101D80007047704708B5FEF74BFC08BD70B50D46AF
:101D90001646002404E0AFF30080287001340135BA
:101DA000B442F8DB304670BD70B51646002405E03D
:101DB0004D1C0878AFF3008001342946B442F7DBAC
:101DC000304670BD08B503460B4A126842B10A4A54
:101DD000106803446A46934206D8074A136008BD58
:101DE000054A06491160F2E701F07AFB0C23036013
:101DF0004FF0FF30F3E700BF9800002008020020FA
:101E00004FF0FF3070474FF400534B600020704795
:101E1000012070470020704710B40F4AD2F8883074
:101E200043F47003C2F888300C4B196841F001018B
:101E30001960002098601C6809492140196009490F
:101E40005960196821F480211960D8604FF000634F
:101E500093605DF8044B704700ED00E000380240ED
:101E6000FFFFF6FE1030002408B5FEF7EBFB08BDBF
:101E700010B50F4C002280212046FEF741FD0022C4
:101E800040212046FEF73CFD6420FFF7EDFF0122D4
:101E900080212046FEF734FD0A20FFF7E5FF0122EE
:101EA00040212046FEF72CFD6420FFF7DDFF10BD2A
:101EB0000018024008B5FFF7DBFF002008BD70479F
:101EC000704700002DE9F04184B00D461446002310
:101ED0008DF80F308DF80E308DF80D3048B3064672
:101EE000002936D14FF001081F460DF10F050022E1
:101EF0004FF480711848FEF703FD04B333788DF872
:101F00000E304FF47A73009301230DF10D020DF1A1
:101F10000E011248FFF70EF99DF80D302B70013CB1
:101F2000A4B2B8F1000F00D10135002FE5D1013680
:101F3000E3E74FF0000801270DF10F06D7E7012274
:101F40004FF480710448FEF7DBFC002004B0BDE8CC
:101F5000F0816FF00500F9E700000240D00000209A
:101F600008B5FFF785FF0120FFF77EFF002008BDC1
:101F7000032807D108B50B460A8949681868FFF796
:101F8000A1FF08BD4FF0FF30704700207047134697
:101F90002AB111F8012B00F8012B013BF9D1704750
:101FA00013461AB100F8011B013BFBD17047002317
:101FB00002E001339BB201300278002AF9D11846C1
:101FC00070470000024A13780133DBB21370704788
:101FD000A0000020704700B583B00120FFF770FF1C
:101FE00001A941F2700000F03EFE034618B1184608
:101FF00003B05DF804FB019941F00201019141F247
:10200000700000F034FE0346F1E7000008B5124B03
:102010005B78C3B9104B9B78DBB2032B06D00E4B19
:102020009B78DBB2042B01D000210DE000F084FC92
:10203000014670B945F2786141F2740000F017FE74
:10204000014608B105E00021034A53780133DBB2B1
:102050005370084608BD00BFA00000201E4B5B78EF
:1020600023B11D4A5378013BDBB253701A4B5B78A6
:1020700073BB194B9B78DBB2032B06D0164B9B78B6
:10208000DBB2042B01D0002323E000B583B0002392
:10209000019344F2213141F2740000F0E8FD03465F
:1020A00018B1184603B05DF804FB01A9012000F047
:1020B000DAFD03460028F4D1019911F0020FF0D0A7
:1020C00021F002010191012000F0D1FD0346E8E773
:1020D00000231846704700BFA000002030B585B02F
:1020E000FFF794FF044610B1204605B030BD03A9A8
:1020F00041F2700000F0B7FD04460028F4D1039BC4
:1021000013F0010F7AD0FFF7DBFE03A941F2700054
:1021100000F0A9FD04460028E6D1039921F0010151
:10212000039141F2700000F0A2FD04460028DBD1CB
:1021300003A941F2700000F096FD0446A0B9424B9D
:102140000022DA70039DC5F38B05002D79D004A918
:1021500041F80C2D41F2840000F085FD044638B1B1
:102160000120FFF7ADFEBFE70120FFF7A9FEBBE7A7
:10217000042202A9019800F07FFDBDF80A301B027D
:102180009BB2BDF80A2043EA1223ADF80A30044698
:10219000D8B9BDF80A309BB2AB4204D0BDF80A30C2
:1021A000ED1A042D15DC9DF80830DBB2012B16D09A
:1021B0009DF80830DBB2022B24D09DF80830DBB24A
:1021C000042B2DD06FF005048EE70120FFF778FE79
:1021D0008AE70120FFF774FE6FF0050484E71A4BCD
:1021E0005B6843B19DF80900BDF80A100839019AEF
:1021F000083289B29847144BDB78FBB1FFF72EFF0A
:10220000044671E7104B9B68002BF4D09DF8090041
:10221000BDF80A100839019A083289B29847EAE7EE
:10222000094BDB68002BE6D09DF80900BDF80A10C9
:102230000839019A083289B29847DCE7FFF7CBFEEC
:10224000DCE76FF001044FE7A00000202DE9F04724
:1022500086B004460D46924699460E9EBDF83C80D7
:10226000BDF8407001F07F038DF815308DF8140033
:102270000823ADF8163086B1BDF8162007EB080329
:1022800012FA83F39BB2ADF81630FFF7BFFE034698
:1022900050B1184606B0BDE8F087BDF816304B4483
:1022A0009BB2ADF81630F0E700230393ADF806308B
:1022B0000293029B1C430294029B43EA052502956C
:1022C000BDF81620029B43EA02430293029941F2B1
:1022D0008C0000F0CCFC03460028DAD100230293E6
:1022E000029B43F002030293029941F2780000F04E
:1022F000BEFC03460028CCD100230393ADF8063082
:10230000BDF806309BB2B3F57A7F17D202A941F22D
:10231000780000F0A8FC88B9029B13F0020F06D0E9
:10232000BDF8063001339BB2ADF80630E8E703A9EB
:102330002B4800F098FC08B100230393039B002B6B
:102340004AD0039B0493BDF816301B029BB2BDF824
:10235000162043EA1223ADF816300498082205A986
:1023600000F0B4FC0346002893D1049B0833049387
:10237000BAF1000F0AD004984A46514600F0A6FC74
:102380000346002885D1049B4B44049386B1A7EBF8
:102390000907049B1F44049704984246314600F005
:1023A00095FC034600287FF474AF049B43440493D8
:1023B000039B9B000293029B43F00203029302994A
:1023C00041F26C0000F053FC034600287FF461AF3B
:1023D000FFF744FE03465CE76FF0020359E700BFD6
:1023E0000004150008B5002309E0084A1378013BF2
:1023F000DBB21370FFF772FE03460028FAD1034ADE
:102400001278002AF1D1184608BD00BFA0000020B4
:102410002DE9F04182B01C460F46B1FA81F149091D
:10242000002808BF012111B91546064672B92CB91A
:102430006FF00B03184602B0BDE8F0811F4B01227C
:10244000DA70FFF7C8FD6FF00B03F3E7694641F25E
:10245000700000F008FC03460028EBD1009BC3F39A
:102460008B0801A941F2840000F0FDFB034600281F
:10247000E0D12A463946304600F0FEFB03460028EC
:10248000D8D1454510D8019AB24210D8354490446D
:1024900045450FD801D0002CCCD0084B0122DA7072
:1024A000FFF799FD0346C5E76FF00B03C2E76FF036
:1024B0000B03BFE76FF00B03BCE700BFA0000020D9
:1024C0000138032813D8DFE800F006020E0A094B92
:1024D000996000207047074B596000207047054BFA
:1024E000D96000207047034B1961002070476FF0DE
:1024F0000B007047A000002010B5084B00245C6062
:102500009C605C709C701C700548FFF7D8FC054906
:102510000320FFF7D5FF204610BD00BFA00000201C
:10252000C51F0008D51F000810B59CB014462C2804
:102530002BD01B2839D0062847D00E2833D032287C
:1025400053D02F2861D0342874D0112800F0838014
:10255000132800F09680042800F0A380792800F06A
:10256000B280092800F0C1802A281CD1012304224E
:102570000DEB02012046FFF74BFFA0B9644B1B682F
:102580008BB101A92A2098470DE0002304220DEB0E
:1025900002012046FFF73CFF28B95D4B1B6813B1D1
:1025A00001A92C2098471CB010BD0023082201A9C6
:1025B0002046FFF72DFF0028F5D1554B1B68002B57
:1025C000F1D001A91B209847EDE70123302201A992
:1025D0002046FFF71DFF0028E5D14D4B1B68002B5F
:1025E000E1D001A906209847DDE70023102201A9C8
:1025F0002046FFF70DFF0028D5D1454B1B68002B67
:10260000D1D001A932209847CDE76422002101A84A
:10261000FFF7C6FC0023642201A92046FFF7F8FE5D
:102620000028C0D13A4B1B68002BBCD001A92F2039
:102630009847B8E7002304220DEB02012046FFF77C
:10264000E7FE0028AFD1324B1B68002BABD0002136
:1026500034209847A7E700232D4A137104220DEB7D
:1026600002012046FFF7D4FE00289CD19DF80420EB
:10267000274B5A711B68002B95D001A91120984750
:1026800091E700232C2201A92046FFF7C1FE002874
:1026900089D11F4B1B68002B85D001A913209847B7
:1026A00081E7002304221AA92046FFF7B1FE002883
:1026B0007FF479AF164B1B68002B3FF474AF1AA957
:1026C000042098476FE7002304221AA92046FFF749
:1026D0009FFE00287FF467AF0D4B1B68002B3FF473
:1026E00062AF1AA9792098475DE70123642201A906
:1026F0002046FFF78DFE00287FF455AF044B1B6882
:10270000002B3FF450AF01A9092098474BE700BFC9
:10271000B400002010B5B8B102680D4B1A6000205B
:10272000187100F04BFB044608B1204610BDFFF7BE
:10273000E3FE044618B1002000F077FBF5E70549F9
:102740000120FFF7BDFEF0E76FF00B04EDE700BFDF
:10275000B40000202925000808B5FFF743FE08BD96
:10276000F0B5A1B0BDF89870012A01D0002B67D058
:102770004C1EE4B21F2C66D80D2F01D9FF2F65D156
:102780001E4615460C46014622460DF15A00FFF73B
:10279000FEFB20AB1919002301F8263C3B0A03EB92
:1027A0000727ADF858709DF89C30003318BF0123FF
:1027B0008DF87B308DF85550032D11D0022D2CD083
:1027C000042D37D0012D4DD10023029301930093A6
:1027D0006C2305AA28210120FFF738FD21B0F0BDA8
:1027E0003378013BDBB28DF81430032B31D873788A
:1027F000013BDBB28DF815300A2B18BF1A2B2BD1F9
:102800007278B11C0DF11600FFF7C1FB737820AA96
:102810001344002203F86A2CD6E73046FFF7C7FBC3
:10282000431E9BB23F2B1AD8421C314605A8FFF726
:10283000AEFBC9E73E22314605A8FFF7A8FBC3E778
:102840006FF00B00CAE76FF00B00C7E76FF00B00EB
:10285000C4E76FF00B00C1E76FF00B00BEE76FF04D
:102860000B00BBE76FF00B00B8E710B582B0002497
:102870000194BDF810400094FFF772FF02B010BD44
:1028800000207047124B1B79DBB9A0F10E03DBB2BD
:10289000F02B19D900B587B006AA02F8040D002361
:1028A000029301930093042310210120FFF7CEFC33
:1028B000034610B9064A01211171184607B05DF8A8
:1028C00004FB6FF00D0301E06FF00E031846704734
:1028D000B400002000B587B006AA02F8040D00235A
:1028E000029301930093042312210120FFF7AEFC11
:1028F00007B05DF804FB0000014B5879704700BF3A
:10290000B400002010B582B0044621464FF4A55013
:1029100000F0ADF964B102A9002341F8043D4FF481
:10292000A55000F0A0F90028EFD1019BA342ECD103
:10293000002002B010BD000030B583B00120FFF7C9
:1029400093FA01A9012000F08EF9054600283BD139
:10295000002419E00220FFF787FA69461F4B186828
:1029600000F081F9009B13F0040208D101341C4BE4
:10297000A3FB04135B0803EB43039C42EAD032B38E
:10298000009B13F0040F1FD1019941F002010120B7
:1029900000F06DF90120FFF767FA69460F4B1868E0
:1029A00000F061F9054610B9009B002BDAD10B4D00
:1029B0000E232B600120FFF757FA6946286800F0C4
:1029C00052F905460028CDD0284603B030BD019904
:1029D00041F00201012000F04AF9D1E71000002087
:1029E000ABAAAAAA00B583B001A941F2084000F041
:1029F0003AF9F8B9019941F48071019141F2084026
:102A000000F035F9C8B901A94FF4D05000F02BF906
:102A1000B0B9019941F4803101914FF4D05000F0E8
:102A200026F9034618B9184603B05DF804FB6FF0A9
:102A30000503F8E76FF00503F5E76FF00503F2E72C
:102A40006FF00503EFE7000010B582B01F4B1C6864
:102A500024B11E4B1C68204602B010BD19464FF42D
:102A6000805000F000F918B1184B00221A60F2E70C
:102A700001A941F2F43000F0F6F818B1134B00222E
:102A80001A60E8E7114B1B68114A93420AD0114AB9
:102A900093420ED00D4A136823F4702343F4A0230D
:102AA0001360D6E7019B012BF4D0084B01321A606A
:102AB000F0E7019B032BEDD0042B03D0034B064A18
:102AC0001A60E7E7014B01321A60E3E7BC0000201F
:102AD000A0021000B0021000B202100038B5054686
:102AE00041F2140000F0BBF8002803DB0120FFF7DF
:102AF000BBF9F5E7194800F0B2F810F0010012D068
:102B0000022D22D0FFF7A0FFC0F30B00B0F5687FC5
:102B100020D00020FFF7F6FE11494FF00C1000F016
:102B2000A6F8002038BD04460E4B9842E8D001209C
:102B3000FFF79AF94FF00C1000F091F80134B4F55A
:102B4000FA6FF1D96FF00400ECE70749074800F08D
:102B50008EF8D7E70220FFF7D5FEDDE7BC070200BD
:102B6000612F52EF9ED0AD107DD51C3CAC0702000A
:102B700010B582B041F28C030193174B00930228E9
:102B800011D000242046009B834216D00220FFF77C
:102B90006BF9019800F063F80134B4F5FA6FF2D9DB
:102BA0006FF004000EE00D4B0193A3F12253A3F547
:102BB0001113A3F2E9530093E3E7009A064B9A42FC
:102BC00002D0002002B010BD002141F28C0000F0C4
:102BD0004EF80020F6E700BF36265302AC0702008D
:102BE00010B582B002A9002341F8043D4FF4A05073
:102BF00000F039F8019921F4806101914FF4A0505F
:102C000000F035F80246B8B90A2401A94FF4A050E3
:102C100000F029F8024678B9019911F4806F0BD0C1
:102C200021F4806101914FF4A05000F020F8024699
:102C3000631E13F0FF04E8D1104602B010BD08B5C2
:102C400000F010FC08BD08B500F016FC08BD08B582
:102C5000FFF786F908BD08B5FFF797F908BD08B575
:102C600000F096FB08BD08B500F09BFB08BD08B559
:102C700000F0A1FB08BD00002DE9F8430746884697
:102C80001646114B1D88083DADB20024A146B54241
:102C90000DD22A4608EB09013846FFF7D0FF54FA57
:102CA00080F464B264B9761BA9442F44EFE7B2B252
:102CB00008EB09013846FFF7C2FF54FA80F464B20A
:102CC0002046BDE8F88300BF0C0000202DE9F84342
:102CD000074688461646114B1D88083DADB20024B4
:102CE000A146B5420DD22A4608EB09013846FFF746
:102CF000AAFF54FA80F464B264B9761BA9442F4445
:102D0000EFE7B2B208EB09013846FFF79CFF54FA2F
:102D100080F464B22046BDE8F88300BF0C000020B8
:102D200030B583B0054602A9002341F8043D22488E
:102D3000FFF799FF0446019B1A0C91B2080AE8704C
:102D4000C1F30311297102F00F026A719AB2110ADC
:102D50002970C2F303126A7003F00F03AB70FFF720
:102D600073FEE8612A786B781B0103F0F00343EAF5
:102D700002231BB2AA7802F00F0213439BB2E97838
:102D80002A79120102F0F00242EA012212B26979B4
:102D900001F00F010A4392B241F230318A4201D967
:102DA0006FF00C0441F22F32934202D9204603B057
:102DB00030BD6FF00C04F9E7AC07020030B589B004
:102DC00058B10578022D00D001250020FFF73FFF04
:102DD000044620B1204609B030BD0125F5E700F0DA
:102DE00003FB2846FFF77AFE04464FF47A70FFF79C
:102DF0003BF854B92846FFF7BBFE044628B9022D1C
:102E0000E8D0FFF7EFFD044610B1FFF724FFE1E73C
:102E10006846FFF785FF0446BDF8002040F21333F3
:102E20009A42D7D06FF00C04D4E710B5FFF7D8FE64
:102E3000044608B1204610BDFFF70DFF04460028E8
:102E4000F8D100F09FFAF5E781EA4001014B585CA8
:102E5000704700BF2444000838B505E04D1C0978D0
:102E6000FFF7F2FF22462946541E002AF6D138BD4C
:102E700000B585B0002301930290ADF80C1001A9B4
:102E80000320FFF775F805B05DF804FB70B582B05C
:102E90000646C52818BFCF2803D0C62801D00A246B
:102EA0000BE001210DF10700FFF7E2FF0028F6D04B
:102EB0000025284602B070BD1C4601210DF1070017
:102EC000FFF7D6FF0546E0B99DF80730B34205D0BD
:102ED000631E5BB2002CEFDC0A2402E00A2400E04F
:102EE0001C4601210DF10700FFF7C2FF0028E0D1C9
:102EF0009DF807303BB1631E5BB2002CF0DC01256E
:102F0000D7E70025D5E70125D3E700002DE9F047F5
:102F100082B081460F4692464FF0010800262BE012
:102F20004FF400552CE01C4602210DF10300FFF781
:102F30009FFF38BB9DF803301B090F2B04D0631E85
:102F40001BB2002CEFD11C46B8F1000F27D0002C8B
:102F500023DDADB2294609EB0600FFF789FF0446E1
:102F600008BBBAF1000F02D1104B1B786BB12E4495
:102F700036B27D1BAFB297B1B7F5005FD0D83DB286
:102F80000A24D1E74FF00008DEE7022101A8FFF78D
:102F90006FFF0028EBD0A04601E04FF0000840464C
:102FA00002B0BDE8F0874FF00008F8E7C00000204D
:102FB00000B585B0019000230293ADF80C1001A973
:102FC0000320FEF7D5FF05B05DF804FB30B585B0F2
:102FD0009DF820408DF80400C1380E2800F2BA8018
:102FE000DFE800F05858802D3D466A6A9A08B8B864
:102FF000B8B84F00C1F307438DF80530C1F307237C
:103000008DF806308DF807100524534B1B78002BE4
:1030100040F09B80651E2A4601A97F20FFF71CFF18
:10302000400004AB1D4405F80C0C214601A8FFF735
:10303000BFFF002800F08C80002005B030BDC1F338
:1030400007238DF805301CB163F07F038DF8053040
:103050008DF8061000238DF807300524D5E70023EE
:103060008DF805308DF806308DF807300524CCE753
:1030700000238DF805308DF806308DF807300524D3
:10308000C3E7FF238DF805308DF806308DF8073043
:103090000524BAE7C1F307428DF80520C1F30722E2
:1030A0008DF806208DF80710C3F307228DF808204D
:1030B0008DF809300724A8E7C1F307428DF80520F1
:1030C000C1F307228DF806208DF80710C3F30742DD
:1030D0008DF80820C3F307228DF809208DF80A30F7
:1030E000082492E7C1F307238DF805301CB163F083
:1030F0007F038DF805308DF80610130E8DF807301C
:10310000C2F307438DF80830C2F307238DF8093066
:103110008DF80A20082478E7C1F307438DF80530BD
:10312000C1F307238DF806308DF80710130E8DF8C4
:103130000830C2F307438DF80930C2F307238DF836
:103140000A308DF80B2009245FE7013CE4B26CE7FC
:10315000012072E7002070E7C000002010B582B0A7
:103160000A4630280CD80123C324009304230146C7
:103170002046FFF72BFF012805D0002002B010BD2C
:103180000023C924F1E72046FFF780FE0128F5D08F
:1031900000240094234622462146CF20FFF716FF45
:1031A0002046EBE770B584B00E46FF280DD8012508
:1031B000C42400950423002201462046FFF706FFA1
:1031C000012805D0002004B070BD0025CA24F0E716
:1031D0002046FFF75BFE012809D000240094234617
:1031E00022462146CF20FFF7F1FE2046EBE72A4694
:1031F000042103A8FFF78AFE01280FD19DF80C30A7
:103200009DF80D2043EA02239DF80E2043EA024375
:103210009DF80F2043EA02633360D4E70024009452
:10322000234622462146CF20FFF7D0FE2046CAE79C
:1032300030B583B00D461446002200922346014665
:10324000C820FFF7C3FE012802D0002003B030BD24
:10325000C820FFF71BFE012809D000240094234654
:1032600022462146CF20FFF7B1FE2046EEE700229E
:1032700021462846FFF74AFE0128E7D000240094A3
:10328000234622462146CF20FFF7A0FE2046DDE759
:103290002DE9F04383B007460E460024ADF8044004
:1032A0001DE0354620E0B6F5005F26D8032363F025
:1032B0000F0302A800F8013D0121FFF779FE8046C7
:1032C00040BB29463819FFF773FE814620BB144BDB
:1032D0001B78A3B12C4424B2751BAEB2BEB1B6F5B7
:1032E000005FDED94FF40055002CDCD1B6F5005F4D
:1032F00001D80323DBE70123D9E70223D7E7022123
:1033000001A8FFF755FE0028E4D0C84604E04FF0BE
:10331000010801E04FF00008404603B0BDE8F0832B
:10332000C000002070B582B00D4614460022009205
:1033300023460146C720FFF749FE012802D000209E
:1033400002B070BDC720FFF7A1FD0646012809D0D5
:1033500000240094234622462146CF20FFF736FE64
:103360002046EDE721462846FFF792FF0128E7D0E7
:10337000002100910B460A46CF20FFF727FE30467A
:10338000DEE700000020014B18707047C0000020ED
:1033900000B583B001A9FFF705FF019803B05DF800
:1033A00004FB08B5FFF7FEFE012801D1002008BD8F
:1033B0006FF00500FBE708B5FFF7D0FE012801D14B
:1033C000002008BD6FF00500FBE708B54EF62400AD
:1033D000FFF7DEFF20F0700141F050014EF62400AF
:1033E000FFF7E9FF08BD000000B583B0002302A984
:1033F00041F8083D1A4A13704EF62400FFF7D2FE3A
:10340000F0B1174B1B7873B9009921F07C0141F0A2
:10341000500100914EF62400FFF7A0FE034658B17C
:103420000F4B01221A7001A94FF48050FFF7BAFE2A
:1034300090B1FFF7CAFF0023184603B05DF804FB04
:10344000074B01221A7069464EF62400FFF7AAFEC8
:1034500003460028D5D1EFE76FF00503ECE700BF86
:10346000C000002008B5FFF7E3FE012801D10020CD
:1034700008BD6FF00500FBE708B5FFF753FF012813
:1034800001D1002008BD6FF00500FBE7DFF834D064
:10349000002103E00C4B5B58435004310B480C4BAC
:1034A00042189A42F6D30B4A02E0002342F8043B4A
:1034B000094B9A42F9D3FEF7AFFC00F017F8FEF77C
:1034C000B5FB7047000005203846000800000020CA
:1034D000780000207800002008020020FEE70000AD
:1034E000014B1868704700BF1400002070B50D4EE6
:1034F0000D4CA41BA4100025A54209D10B4E0C4C69
:1035000000F078FFA41BA4100025A54205D170BDD2
:1035100056F8253098470135EEE756F8253098479C
:103520000135F2E730460008304600083046000812
:103530003446000830B50024A24201D1002007E043
:10354000035D01340D1915F8015CAB42F4D0581B32
:1035500030BD02440346934200D1704703F8011B7B
:10356000F9E700000FB40A4B13B51C6824B1A36936
:1035700013B9204600F022FA05AB049AA168019322
:10358000204600F0DBFB02B0BDE8104004B07047FD
:103590001400002070B50E46054618B183690BB9BA
:1035A00000F00CFAAB69AC6813B9284600F006FAD3
:1035B000234B9C4217D16C68A3891B071DD5236937
:1035C000DBB1013EA36816F8011F013BA360E9B916
:1035D000002B2EDA22460A21284600F03FF801305F
:1035E00011D00A2011E0174B9C4201D1AC68E3E7EF
:1035F000154B9C4208BFEC68DEE72146284600F0E8
:103600007FF80028DDD04FF0FF3070BD002B04DACA
:10361000A2699A4206DC0A2904D023685A1C226057
:103620001970CFE72246284600F018F80130C9D1BA
:10363000E9E723680A205A1C22601870E5E700BFFA
:10364000B4450008D445000894450008024B0146E3
:103650001868FFF79FBF00BF14000020F8B50E46A2
:103660001446054618B183690BB900F0A7F9214B40
:103670009C422AD16C68A369A360A3891A072ED53E
:10368000236963B323692068C01A6369F6B2834271
:10369000374604DC2146284600F026F928BBA368FB
:1036A000013BA36023685A1C22601E7063690130CD
:1036B000834204D0A389DB0719D50A2E17D12146EE
:1036C000284600F011F990B10FE00B4B9C4201D15C
:1036D000AC68D0E7094B9C4208BFEC68CBE72146B9
:1036E000284600F00DF80028CCD04FF0FF373846C0
:1036F000F8BD00BFB4450008D44500089445000853
:10370000324B70B51D6806460C4625B1AB6913B93E
:10371000284600F053F92E4B9C420FD16C68B4F947
:103720000C309AB215072CD4D00611D4092232607D
:1037300043F04003A3814FF0FF303EE0254B9C4215
:1037400001D1AC68EBE7244B9C4208BFEC68E6E78C
:10375000510712D5616B41B104F14403994202D083
:10376000304600F019FA00236363A38923F0240391
:10377000A3810023636023692360A38943F00803C6
:10378000A38123694BB9A38903F42073B3F5007FA8
:1037900003D02146304600F0BFF9A28912F00103A0
:1037A0000CD00023A36063695B42A361236953B912
:1037B000B4F90C3013F08000BAD170BD920758BF35
:1037C0006369A360F2E70020F7E700BF1400002060
:1037D000B4450008D4450008944500088A892DE9BD
:1037E000F041054610070C4658D44B68002B05DC09
:1037F0000B6C002B02DC0020BDE8F081E66A002E95
:10380000F9D0002312F480522F68216A2B6032D045
:10381000606DA3895A0705D56368C01A636B0BB145
:10382000236CC01A00230246E66A216A2846B04784
:10383000431CA38906D129681D2948D8294ACA40B2
:10384000D60744D500226260D9042269226004D5DB
:10385000421C01D12B6803B96065616B2F600029A0
:10386000C9D004F14403994202D0284600F094F9EB
:1038700000206063C0E701232846B047411CC8D13F
:103880002B68002BC5D01D2B01D0162B01D12F602A
:10389000B1E7A38943F04003A381ADE70F69002F8F
:1038A000A9D093070E6808BF4B690F6018BF0023AB
:1038B000A6EB07088B60B8F1000F9CDD43463A4643
:1038C000216AA66A2846B047002806DCA38943F08F
:1038D0004003A3814FF0FF308EE70744A8EB0008B8
:1038E000E9E700BF0100402038B50B6905460C46EA
:1038F000DBB118B183690BB900F060F80C4B9C4246
:1039000009D16C68B4F90C307BB121462846BDE87A
:103910003840FFF763BF074B9C4201D1AC68F1E729
:10392000054B9C4208BFEC68ECE7002038BD00BFA7
:10393000B4450008D445000894450008002310B59C
:103940000446C0E90033836081814366C281C0E9D7
:1039500004338361194608225C30FFF7FAFD054BFA
:103960006362054BA362054BE362054B246223634C
:1039700010BD00BF99420008BB420008F342000896
:1039800017430008014900F085B800BFE938000876
:1039900070B54A1E682555430E4605F1740100F0C6
:1039A00049F9044640B10021C0E900160C30A0607E
:1039B00005F16802FFF7CDFD204670BD836910B5A3
:1039C000044633BBC0E912330365124B124A1B682D
:1039D0008262984204BF0123836100F01FF8606097
:1039E000204600F01BF8A060204600F017F80022E7
:1039F000E06004216068FFF7A1FF01220921A068AF
:103A0000FFF79CFF02221221E068FFF797FF0123D6
:103A1000A36110BD9045000885390008F8B51B4B1F
:103A20001E68B369074613B93046FFF7C7FF48362B
:103A3000D6E90134013B03D5336833B13668F7E783
:103A4000B4F90C506DB16834F4E704213846FFF73F
:103A50009FFF30600028F1D10C233B6004462046D4
:103A6000F8BD0B4B6566C4E90055A560C4E9033594
:103A7000C4E905550822294604F15C00FFF769FDF9
:103A8000C4E90D55C4E91255E9E700BF90450008A7
:103A90000100FFFF2DE9F8438046894600F1480404
:103AA000002614B93046BDE8F883D4E90175013F1A
:103AB00001D52468F5E7AB89012B07D9B5F90E309C
:103AC000013303D029464046C84706436835EEE730
:103AD00070B50E46B1F90E10002996B014461D4679
:103AE00007DA00232B60B3891A0610D44FF48063E1
:103AF0000EE06A4600F036FC0028F2DB019A02F480
:103B00007042A2F500535A425A412A60EEE7402320
:103B10000020236016B070BD8B8973B59D070646E3
:103B20000C4607D504F14703236023610123636139
:103B300002B070BD01AB6A46FFF7CAFF00990546A7
:103B4000304600F077F848B9B4F90C309A05EFD454
:103B500023F0030343F00203A381E3E70D4BB362B9
:103B6000A389206043F08003A381009B6361019BD4
:103B700020615BB1B4F90E10304600F005FC28B1AD
:103B8000A38923F0030343F00103A381A3891D4309
:103B9000A581CDE78539000838B50546002945D00F
:103BA00051F8043C0C1F002BB8BFE41800F00EFCC9
:103BB0001F4A1368104633B9636014602846BDE895
:103BC000384000F004BCA3420CD92168621893422B
:103BD00004BF1A685B68636004BF52182260046007
:103BE000ECE713465A680AB1A242FAD91968581884
:103BF000A0420BD120680144581882421960DDD1DF
:103C0000106852685A6001441960D7E702D90C2342
:103C10002B60D3E7206821188A4204BF11685268DC
:103C2000626004BF091821605C60C7E738BD00BF4F
:103C3000C400002070B5CD1C25F0030508350C2DFF
:103C400038BF0C25002D064601DBA94203D90C2301
:103C50003360002070BD00F0B9FB214A1468214692
:103C600091B9204C23681BB9304600F005FB206059
:103C70002946304600F000FB431C24D10C2333605E
:103C8000304600F0A4FBE4E70B685B1B18D40B2B59
:103C90000FD90B60CD50CC18304600F098FB04F1E2
:103CA0000B00231D20F00700C31AD3D05A42E25064
:103CB000D0E78C424B6816BF636013600C46EBE79D
:103CC0000C464968CCE7C41C24F00304A04205D08C
:103CD000211A304600F0D0FA0130CFD02560DBE762
:103CE000C4000020C80000209368013B002B10B4E2
:103CF000936008DA9469A34201DB0A2903D15DF8D5
:103D0000044BFFF7ABBC1368581C106019700846D1
:103D10005DF8044B7047F8B506460F461446D518B3
:103D2000AC4201D1002007E03A4614F8011B3046AE
:103D3000FFF7DAFF431CF3D1F8BD00002DE9F04F87
:103D40000C469DB017461D46064618B183690BB94F
:103D5000FFF734FE7C4B9C4258D17468A389180746
:103D60005ED52369002B5BD00023099320238DF8B7
:103D7000293030238DF82A3003954FF0010BB846D7
:103D8000454615F8013B0BB1252B54D1B8EB070A7A
:103D90000BD053463A4621463046FFF7BCFF013070
:103DA00000F0C280099B5344099398F80030002B1F
:103DB00000F0BA8000234FF0FF32CDE905230493D1
:103DC00007938DF853301A93A846052218F8011B63
:103DD0005E48FCF7A5FB049B78BBD90644BF2022B4
:103DE0008DF853201A0744BF2B228DF853202A78D0
:103DF0002A2A2AD0079AA84600200A25414611F807
:103E0000013B303B092B69D960B324E0504B9C4205
:103E100001D1B468A2E74F4B9C4208BFF4689DE70C
:103E200021463046FFF76CFC00289DD04FF0FF3054
:103E30001DB0BDE8F08FA846A2E7444A801A0BFAED
:103E400000F0184304904546BEE7039A111D12681E
:103E50000391002A01DB079204E0524243F002037F
:103E60000792049398F800302E2B0ED198F8013069
:103E70002A2B38D1039B1A1D1B680392002BB8BF55
:103E80004FF0FF3308F102080593334D98F8001006
:103E900003222846FCF744FB40B14023401B03FAB1
:103EA00000F0049B034308F10108049398F8001004
:103EB0002A488DF82810062208F10107FCF730FB8C
:103EC000002837D0264B1BBB039B073323F0070387
:103ED00008330393099B4B44099350E705FB0232D7
:103EE000012088468AE7002308F101080593194656
:103EF0000A25404610F8012B303A092A03D9002B35
:103F0000C3D00591C1E705FB012101238046F0E7FD
:103F100003AB00932246134B04A93046AFF3008055
:103F2000B0F1FF3F8146D5D1A3895B063FF57EAF57
:103F300009987DE703AB009322460A4B04A930465B
:103F400000F088F8ECE700BFB4450008F44500082D
:103F5000D445000894450008FA450008FE450008CD
:103F600000000000173D00082DE9F04791461F466C
:103F70008A680B69DDF820809342B8BF1346C9F800
:103F8000003091F8432006460C4612B10133C9F8BF
:103F900000302368990642BFD9F800300233C9F8CF
:103FA0000030256815F0060507D104F1190AE36809
:103FB000D9F800209B1AAB4228DC94F843302268E1
:103FC000003318BF012392062DD404F14302394671
:103FD0003046C047013020D02368E568D9F800207A
:103FE00003F00603042B08BFAD1AA36822690CBFB7
:103FF00025EAE57500259342C4BF9B1AED184FF0E2
:1040000000091A344D451AD1002008E00123524618
:1040100039463046C047013003D14FF0FF30BDE88C
:10402000F0870135C3E7E1185A1C302081F84300BE
:10403000224494F8451082F843100233C5E7012367
:10404000224639463046C0470130E6D009F1010921
:10405000D8E700002DE9F04301F1430C0C46097E3E
:1040600085B06E291746064698460C9A00F0B38034
:1040700022D8632936D00AD8002900F0B9805829FF
:1040800000F0838004F1420584F8421032E0642994
:1040900001D06929F6D120681368050603F10401EF
:1040A0002AD51B681160002B03DA2D225B4284F8AD
:1040B00043206F480A2239E0732900F09D8008D818
:1040C0006F2920D07029DDD1236843F020032360BD
:1040D00003E0752917D07829D4D1782384F84530A6
:1040E000644855E01368191D1B68116004F142050E
:1040F00084F8423001238CE01B68116010F0400FFF
:1041000018BF1BB2CFE713682568181D106028067A
:1041100001D51B6802E06806FBD51B8854486F294F
:1041200014BF0A220822002184F843106568A560A4
:10413000002DC0F29580216821F004012160002B40
:104140003DD1002D40F08E806546082A0BD12368B2
:10415000DB0708D5236962689A42DEBF302305F881
:10416000013C05F1FF35ACEB05032361CDF8008080
:104170003B4603AA21463046FFF7F6FE01304DD1FB
:104180004FF0FF3005B0BDE8F083394884F84510A2
:10419000136821681D1D1B6815600A060BD5CA0728
:1041A00044BF41F0200121601BB9226822F02002A7
:1041B00022601022B7E74D0648BF9BB2EFE7654685
:1041C000B3FBF2F102FB1133C35C05F8013D0B4672
:1041D0000029F5D1B9E7136825686169181D1060D9
:1041E00028061B6801D5196002E06A06FBD5198014
:1041F000002323616546B9E71368191D11601D6826
:10420000626800212846FCF78BF908B1401B60600A
:1042100063682361002384F84330A7E723692A46B3
:1042200039463046C0470130AAD023689B0713D4D3
:10423000E068039B9842B8BF1846A3E701234A46AB
:1042400039463046C04701309AD00135E368039AB9
:104250009B1AAB42F2DCEBE7002504F11909F5E704
:10426000002BACD1037884F8423004F142056CE7AE
:10427000054600081646000838B5064C00230546DA
:1042800008462360FDF79EFD431C02D1236803B15D
:104290002B6038BD0402002010B50C46B1F90E1099
:1042A00000F096F80028ABBF636DA3891B1823F4B8
:1042B0008053ACBF6365A38110BD2DE9F0411F465B
:1042C0008B89DB0505460C46164605D502230022E0
:1042D000B1F90E1000F068F8A389B4F90E1023F4B8
:1042E0008053A38132463B462846BDE8F04100F0AA
:1042F00017B810B50C46B1F90E1000F055F8431C74
:10430000A38915BF606523F4805343F48053A381D0
:1043100018BFA38110BDB1F90E1000F013B8000052
:1043200038B5074C054608461146002222601A4659
:10433000FDF73AFD431C02D1236803B12B6038BD61
:104340000402002038B5064C0023054608462360C9
:10435000FDF756FD431C02D1236803B12B6038BD25
:104360000402002038B5074C0023054608461146D4
:104370002360FDF748FD431C02D1236803B12B6085
:1043800038BD00BF0402002038B5064C00230546A6
:1043900008462360FDF73CFD431C02D1236803B1AE
:1043A0002B6038BD0402002038B5074C054608468E
:1043B0001146002222601A46FDF72CFD431C02D153
:1043C000236803B12B6038BD04020020704770479A
:1043D00038B5074C054608461146002222601A46A9
:1043E000FDF7D4FC431C02D1236803B12B6038BD18
:1043F00004020020F8B500BFF8BC08BC9E46704718
:0C440000F8B500BFF8BC08BC9E46704731
:10440C000000000000000000010203040607080978
:10441C0000000000010203040009121B242D363F8A
:10442C0048415A536C657E7719100B023D342F2688
:10443C005158434A757C676E323B2029161F040D78
:10444C007A7368615E574C452B2239300F061D1468
:10445C00636A7178474E555C646D767F4049525B58
:10446C002C253E3708011A137D746F6659504B4248
:10447C00353C272E1118030A565F444D727B606938
:10448C001E170C053A3328214F465D546B62797028
:10449C00070E151C232A31384148535A656C777E18
:1044AC0009001B122D243F3658514A437C756E6708
:1044BC001019020B343D262F737A6168575E454CF8
:1044CC003B3229201F160D046A6378714E475C55E8
:1044DC00222B3039060F141D252C373E0108131AD8
:1044EC006D647F7649405B523C352E2718110A03C8
:1044FC00747D666F5059424B171E050C333A2128B8
:10450C005F564D447B7269600E071C152A233831A7
:10451C00464F545D626B707944454D4F5F4150007E
:10452C0031323334353637380000000057692D46A8
:10453C006920636F6E6E65637465640D0000000026
:10454C0057692D46692049502069732025752E2501
:10455C00752E25752E25750D0A0000006D61696E8E
:10456C003A206D326D5F776966695F696E69742098
:10457C0063616C6C206572726F7221282564290D41
:10458C000A000000180000200000000000000000DD
:10459C00000000000000000000000000000000000F
:1045AC0000000000000000000000000000000000FF
:1045BC0000000000000000000000000000000000EF
:1045CC0000000000000000000000000000000000DF
:1045DC0000000000000000000000000000000000CF
:1045EC000000000000000000232D302B2000686C20
:1045FC004C006566674546470030313233343536FA
:10460C003738394142434445460030313233343532
:0C461C003637383961626364656600005F
:0846280018BCFF7F0100000037
:04463000F501000888
:04463400D1010008A8
:1046380001000000100000000024F4000001000048
:104648000F0000001800002000000000B44500081A
:10465800D445000894450008000000000000000050
:104668000000000000000000000000000000000042
:104678000000000000000000000000000000000032
:104688000000000000000000000000000000000022
:104698000000000000000000000000000000000012
:0846A80000000000000000000A
:040000050800348D2E
:00000001FF
